:100000000C942A000C9447000C9447000C94470071
:100010000C9447000C9447000C9447000C94470044
:100020000C9447000C9447000C9447000C94470034
:100030000C9447000C9447000C9447000C94470024
:100040000C9447000C9447000C9447000C94470014
:100050000C94470011241FBECFE5D4E0DEBFCDBF16
:1000600010E0A0E6B0E0E2E9FAE102C005900D92EE
:10007000AC37B107D9F710E0ACE7B0E001C01D9292
:10008000AC37B107E1F70E94E2090C94470D0C94DC
:1000900000000F931F93CF93DF93CDB7DEB7C75404
:1000A000D0400FB6F894DEBF0FBECDBF9E01295BD6
:1000B0003F4FF90180838BE390E02BE330E0F901BF
:1000C00020812B7FFC01208380E090E0A0E8BFE34B
:1000D00089839A83AB83BC8369817A818B819C817C
:1000E00020E030E04AE755E40E94BC0CDC01CB0183
:1000F0008D839E83AF83B88711E06D817E818F8170
:10010000988520E030E040E85FE30E943B0C8823C4
:100110000CF010E0112329F081E090E09A878987A4
:1001200046C011E06D817E818F81988520E03FEF90
:100130004FE757E40E94B80C18160CF010E011239A
:1001400061F169817A818B819C8120E030E040E21D
:1001500051E40E94BC0CDC01CB01BC01CD010E942A
:100160003F0CDC01CB019A87898712C080E991E0BE
:100170009C878B878B859C858C01C8010197F1F743
:100180008C011C870B8789859A8501979A878987B7
:1001900089859A85009751F717C06D817E818F817F
:1001A00098850E943F0CDC01CB019A87898789855D
:1001B0009A859E878D878D859E858C01F801319764
:1001C000F1F78F011E870D878BE390E02BE330E082
:1001D000F9012081277FFC01208380E090E0A0E8E6
:1001E000BFE38F87988BA98BBA8B6F8578898989B4
:1001F0009A8920E030E04AE755E40E94BC0CDC011B
:10020000CB018B8B9C8BAD8BBE8B11E06B897C897A
:100210008D899E8920E030E040E85FE30E943B0C3E
:1002200088230CF010E0112329F081E090E0988FF2
:100230008F8B46C011E06B897C898D899E8920E077
:100240003FEF4FE757E40E94B80C18160CF010E08F
:10025000112361F16F85788989899A8920E030E0DE
:1002600040E251E40E94BC0CDC01CB01BC01CD0199
:100270000E943F0CDC01CB01988F8F8B12C080E96C
:1002800091E09A8F898F898D9A8D8C01C801019791
:10029000F1F78C011A8F098F8F89988D0197988FAC
:1002A0008F8B8F89988D009751F717C06B897C8948
:1002B0008D899E890E943F0CDC01CB01988F8F8B2A
:1002C0008F89988D9C8F8B8F8B8D9C8D8C01F801E5
:1002D0003197F1F78F011C8F0B8F8BE390E02BE3AD
:1002E00030E0F90120812061FC01208380E090E072
:1002F000A0E8BFE38D8F9E8FAF8FB8A36D8D7E8DED
:100300008F8D98A120E030E04AE755E40E94BC0CB4
:10031000DC01CB0189A39AA3ABA3BCA311E069A123
:100320007AA18BA19CA120E030E040E85FE30E942D
:100330003B0C88230CF010E0112329F081E090E0C1
:100340009EA38DA346C011E069A17AA18BA19CA1B7
:1003500020E03FEF4FE757E40E94B80C18160CF06E
:1003600010E0112361F16D8D7E8D8F8D98A120E0BD
:1003700030E040E251E40E94BC0CDC01CB01BC0146
:10038000CD010E943F0CDC01CB019EA38DA312C0C6
:1003900080E991E098A78FA38FA198A58C01C8014F
:1003A0000197F1F78C0118A70FA38DA19EA10197CA
:1003B0009EA38DA38DA19EA1009751F717C069A19F
:1003C0007AA18BA19CA10E943F0CDC01CB019EA3D2
:1003D0008DA38DA19EA19AA789A789A59AA58C0115
:1003E000F8013197F1F78F011AA709A782E390E08E
:1003F0009E01295B3F4FF9012081FC01208380E0B1
:1004000090E0A0E8BFE38BA79CA7ADA7BEA76BA514
:100410007CA58DA59EA520E030E04AE755E40E942A
:10042000BC0CDC01CB018FA798ABA9ABBAAB11E038
:100430006FA578A989A99AA920E030E040E85FE398
:100440000E943B0C88230CF010E0112329F081E07E
:1004500090E09CAB8BAB46C011E06FA578A989A951
:100460009AA920E03FEF4FE757E40E94B80C181616
:100470000CF010E0112361F16BA57CA58DA59EA564
:1004800020E030E040E251E40E94BC0CDC01CB01F2
:10049000BC01CD010E943F0CDC01CB019CAB8BABBE
:1004A00012C080E991E09EAB8DAB8DA99EA98C0115
:1004B000C8010197F1F78C011EAB0DAB8BA99CA96C
:1004C00001979CAB8BAB8BA99CA9009751F717C0E8
:1004D0006FA578A989A99AA90E943F0CDC01CB01DC
:1004E0009CAB8BAB8BA99CA998AF8FAB8FA998AD18
:1004F0008C01F8013197F1F78F0118AF0FAB8BE347
:1005000090E02BE330E0F90120812F7EFC01208375
:1005100080E090E0A0E8BFE389AF9AAFABAFBCAF9B
:1005200069AD7AAD8BAD9CAD20E030E04AE755E493
:100530000E94BC0CDC01CB019E01235C3F4FF90102
:1005400080839183A283B38311E0CE01CD96FC0119
:10055000608171818281938120E030E040E85FE337
:100560000E943B0C88230CF010E0112349F0CE01CF
:100570008F5B9F4F21E030E0FC01318320836EC010
:1005800011E0CE01CD96FC01608171818281938161
:1005900020E03FEF4FE757E40E94B80C18160CF02C
:1005A00010E0112309F449C069AD7AAD8BAD9CAD63
:1005B00020E030E040E251E40E94BC0CDC01CB01C1
:1005C0008E010F5B1F4FBC01CD010E943F0CDC016F
:1005D000CB01F8019183808327C0CE018D5B9F4FB3
:1005E00020E931E0FC0131832083CE018D5B9F4FF8
:1005F000FC01808191818C01C8010197F1F78C0188
:10060000CE018D5B9F4FFC0111830083CE018F5B78
:100610009F4F9E012F5B3F4FF90120813181215077
:100620003040FC0131832083CE018F5B9F4FFC0162
:1006300080819181009789F62EC08E010F5B1F4F3C
:10064000CE01CD96FC0160817181828193810E94EF
:100650003F0CDC01CB01F80191838083CE018B5BE1
:100660009F4F9E012F5B3F4FF90120813181FC019B
:1006700031832083CE018B5B9F4FFC018081918170
:100680008C01C8010197F1F78C01CE018B5B9F4F64
:10069000FC0111830083C95BDF4F0FB6F894DEBF06
:1006A0000FBECDBFDF91CF911F910F9108950F9392
:1006B0001F93CF93DF93CDB7DEB7C754D0400FB6AB
:1006C000F894DEBF0FBECDBF9E01295B3F4FF901FD
:1006D00080838BE390E02BE330E0F90120812460FC
:1006E000FC01208380E090E0A0E8BFE389839A8347
:1006F000AB83BC8369817A818B819C8120E030E06F
:100700004AE755E40E94BC0CDC01CB018D839E833B
:10071000AF83B88711E06D817E818F81988520E05D
:1007200030E040E85FE30E943B0C88230CF010E0CF
:10073000112329F081E090E09A87898746C011E073
:100740006D817E818F81988520E03FEF4FE757E4F0
:100750000E94B80C18160CF010E0112361F16981A9
:100760007A818B819C8120E030E040E251E40E945C
:10077000BC0CDC01CB01BC01CD010E943F0CDC01B3
:10078000CB019A87898712C080E991E09C878B878B
:100790008B859C858C01C8010197F1F78C011C8722
:1007A0000B8789859A8501979A87898789859A8594
:1007B000009751F717C06D817E818F8198850E94C7
:1007C0003F0CDC01CB019A87898789859A859E87B2
:1007D0008D878D859E858C01F8013197F1F78F010A
:1007E0001E870D878BE390E02BE330E0F901208139
:1007F000277FFC01208380E090E0A0E8BFE38F87A3
:10080000988BA98BBA8B6F85788989899A8920E022
:1008100030E04AE755E40E94BC0CDC01CB018B8B35
:100820009C8BAD8BBE8B11E06B897C898D899E89F9
:1008300020E030E040E85FE30E943B0C88230CF0AE
:1008400010E0112329F081E090E0988F8F8B46C053
:1008500011E06B897C898D899E8920E03FEF4FE70D
:1008600057E40E94B80C18160CF010E0112361F147
:100870006F85788989899A8920E030E040E251E4E7
:100880000E94BC0CDC01CB01BC01CD010E943F0CDD
:10089000DC01CB01988F8F8B12C080E991E09A8F99
:1008A000898F898D9A8D8C01C8010197F1F78C0190
:1008B0001A8F098F8F89988D0197988F8F8B8F89C9
:1008C000988D009751F717C06B897C898D899E8917
:1008D0000E943F0CDC01CB01988F8F8B8F89988D04
:1008E0009C8F8B8F8B8D9C8D8C01F8013197F1F74C
:1008F0008F011C8F0B8F8BE390E02BE330E0F9012D
:1009000020812061FC01208380E090E0A0E8BFE32B
:100910008D8F9E8FAF8FB8A36D8D7E8D8F8D98A19B
:1009200020E030E04AE755E40E94BC0CDC01CB013A
:1009300089A39AA3ABA3BCA311E069A17AA18BA15F
:100940009CA120E030E040E85FE30E943B0C88235C
:100950000CF010E0112329F081E090E09EA38DA31C
:1009600046C011E069A17AA18BA19CA120E03FEFD4
:100970004FE757E40E94B80C18160CF010E0112352
:1009800061F16D8D7E8D8F8D98A120E030E040E289
:1009900051E40E94BC0CDC01CB01BC01CD010E94E2
:1009A0003F0CDC01CB019EA38DA312C080E991E036
:1009B00098A78FA38FA198A58C01C8010197F1F783
:1009C0008C0118A70FA38DA19EA101979EA38DA3B3
:1009D0008DA19EA1009751F717C069A17AA18BA1A3
:1009E0009CA10E943F0CDC01CB019EA38DA38DA195
:1009F0009EA19AA789A789A59AA58C01F80131978C
:100A0000F1F78F011AA709A782E390E09E01295B05
:100A10003F4FF9012081FC01208380E090E0A0E8B5
:100A2000BFE38BA79CA7ADA7BEA76BA57CA58DA593
:100A30009EA520E030E04AE755E40E94BC0CDC01B2
:100A4000CB018FA798ABA9ABBAAB11E06FA578A982
:100A500089A99AA920E030E040E85FE30E943B0CBE
:100A600088230CF010E0112329F081E090E09CAB8A
:100A70008BAB46C011E06FA578A989A99AA920E09F
:100A80003FEF4FE757E40E94B80C18160CF010E047
:100A9000112361F16BA57CA58DA59EA520E030E01A
:100AA00040E251E40E94BC0CDC01CB01BC01CD0151
:100AB0000E943F0CDC01CB019CAB8BAB12C080E9E8
:100AC00091E09EAB8DAB8DA99EA98C01C8010197C9
:100AD000F1F78C011EAB0DAB8BA99CA901979CABC8
:100AE0008BAB8BA99CA9009751F717C06FA578A96C
:100AF00089A99AA90E943F0CDC01CB019CAB8BAB6E
:100B00008BA99CA998AF8FAB8FA998AD8C01F801E8
:100B10003197F1F78F0118AF0FAB8BE390E02BE328
:100B200030E0F90120812F7EFC01208380E090E0FD
:100B3000A0E8BFE389AF9AAFABAFBCAF69AD7AAD08
:100B40008BAD9CAD20E030E04AE755E40E94BC0C40
:100B5000DC01CB019E01235C3F4FF901808391832F
:100B6000A283B38311E0CE01CD96FC016081718137
:100B70008281938120E030E040E85FE30E943B0CFB
:100B800088230CF010E0112349F0CE018F5B9F4FBA
:100B900021E030E0FC01318320836EC011E0CE0102
:100BA000CD96FC01608171818281938120E03FEFCD
:100BB0004FE757E40E94B80C18160CF010E0112310
:100BC00009F449C069AD7AAD8BAD9CAD20E030E051
:100BD00040E251E40E94BC0CDC01CB018E010F5BB2
:100BE0001F4FBC01CD010E943F0CDC01CB01F8017D
:100BF0009183808327C0CE018D5B9F4F20E931E038
:100C0000FC0131832083CE018D5B9F4FFC018081ED
:100C100091818C01C8010197F1F78C01CE018D5BA8
:100C20009F4FFC0111830083CE018F5B9F4F9E017C
:100C30002F5B3F4FF9012081318121503040FC0171
:100C400031832083CE018F5B9F4FFC018081918196
:100C5000009789F62EC08E010F5B1F4FCE01CD96F7
:100C6000FC0160817181828193810E943F0CDC01D3
:100C7000CB01F80191838083CE018B5B9F4F9E0156
:100C80002F5B3F4FF90120813181FC0131832083AB
:100C9000CE018B5B9F4FFC01808191818C01C8014B
:100CA0000197F1F78C01CE018B5B9F4FFC01118303
:100CB0000083C95BDF4F0FB6F894DEBF0FBECDBF18
:100CC000DF91CF911F910F9108950F931F93CF93B1
:100CD000DF93CDB7DEB7E8970FB6F894DEBF0FBE4F
:100CE000CDBF81E390E02FEFFC01208382E390E011
:100CF000FC01108288E30E94490080E090E0A0E2BD
:100D0000B1E489839A83AB83BC8369817A818B81C7
:100D10009C8120E030E04AE755E40E94BC0CDC01F5
:100D2000CB018D839E83AF83B88711E06D817E8177
:100D30008F81988520E030E040E85FE30E943B0C23
:100D400088230CF010E0112329F081E090E09A87CD
:100D5000898746C011E06D817E818F81988520E072
:100D60003FEF4FE757E40E94B80C18160CF010E064
:100D7000112361F169817A818B819C8120E030E0CF
:100D800040E251E40E94BC0CDC01CB01BC01CD016E
:100D90000E943F0CDC01CB019A87898712C080E951
:100DA00091E09C878B878B859C858C01C80101977E
:100DB000F1F78C011C870B8789859A8501979A87A3
:100DC000898789859A85009751F717C06D817E8143
:100DD0008F8198850E943F0CDC01CB019A8789871F
:100DE00089859A859E878D878D859E858C01F801E2
:100DF0003197F1F78F011E870D8781E00E9449002E
:100E000080E090E0A0E2B1E48F87988BA98BBA8B49
:100E10006F85788989899A8920E030E04AE755E42E
:100E20000E94BC0CDC01CB018B8B9C8BAD8BBE8BF1
:100E300011E06B897C898D899E8920E030E040E853
:100E40005FE30E943B0C88230CF010E0112329F093
:100E500081E090E0988F8F8B46C011E06B897C8990
:100E60008D899E8920E03FEF4FE757E40E94B80C40
:100E700018160CF010E0112361F16F8578898989CB
:100E80009A8920E030E040E251E40E94BC0CDC0191
:100E9000CB01BC01CD010E943F0CDC01CB01988F3E
:100EA0008F8B12C080E991E09A8F898F898D9A8DFE
:100EB0008C01C8010197F1F78C011A8F098F8F8976
:100EC000988D0197988F8F8B8F89988D009751F708
:100ED00017C06B897C898D899E890E943F0CDC013B
:100EE000CB01988F8F8B8F89988D9C8F8B8F8B8D5B
:100EF0009C8D8C01F8013197F1F78F011C8F0B8FBE
:100F00008FE00E94490080E090E0A0E2B1E48D8F84
:100F10009E8FAF8FB8A36D8D7E8D8F8D98A120E0B1
:100F200030E04AE755E40E94BC0CDC01CB0189A308
:100F30009AA3ABA3BCA311E069A17AA18BA19CA148
:100F400020E030E040E85FE30E943B0C88230CF097
:100F500010E0112329F081E090E09EA38DA346C00C
:100F600011E069A17AA18BA19CA120E03FEF4FE79E
:100F700057E40E94B80C18160CF010E0112361F130
:100F80006D8D7E8D8F8D98A120E030E040E251E4A0
:100F90000E94BC0CDC01CB01BC01CD010E943F0CC6
:100FA000DC01CB019EA38DA312C080E991E098A73C
:100FB0008FA38FA198A58C01C8010197F1F78C012F
:100FC00018A70FA38DA19EA101979EA38DA38DA10C
:100FD0009EA1009751F717C069A17AA18BA19CA18E
:100FE0000E943F0CDC01CB019EA38DA38DA19EA18D
:100FF0009AA789A789A59AA58C01F8013197F1F7DD
:101000008F011AA709A786E00E94490080E090E0BE
:10101000A0E2B1E48BA79CA7ADA7BEA76BA57CA55A
:101020008DA59EA520E030E04AE755E40E94BC0C67
:10103000DC01CB018FA798ABA9ABBAAB11E06FA5D0
:1010400078A989A99AA920E030E040E85FE30E94EE
:101050003B0C88230CF010E0112329F081E090E094
:101060009CAB8BAB46C011E06FA578A989A99AA962
:1010700020E03FEF4FE757E40E94B80C18160CF041
:1010800010E0112361F16BA57CA58DA59EA520E044
:1010900030E040E251E40E94BC0CDC01CB01BC0119
:1010A000CD010E943F0CDC01CB019CAB8BAB12C08D
:1010B00080E991E09EAB8DAB8DA99EA98C01C80102
:1010C0000197F1F78C011EAB0DAB8BA99CA9019781
:1010D0009CAB8BAB8BA99CA9009751F717C06FA550
:1010E00078A989A99AA90E943F0CDC01CB019CAB8D
:1010F0008BAB8BA99CA998AF8FAB8FA998AD8C01B6
:10110000F8013197F1F78F0118AF0FABE8960FB6E2
:10111000F894DEBF0FBECDBFDF91CF911F910F912D
:101120000895CF93DF9300D00F92CDB7DEB78983B8
:101130006A834B838981882341F08A8180540E948D
:1011400049008B810E94570307C08A8180580E9402
:1011500049008B810E9457030F900F900F90DF91F1
:10116000CF9108950F931F93CF93DF93CDB7DEB741
:101170006F970FB6F894DEBF0FBECDBF9F8F8E8FD7
:1011800080E80E94490080E090E0A0E2B1E48A8318
:101190009B83AC83BD836A817B818C819D8120E0B0
:1011A00030E04AE755E40E94BC0CDC01CB018E83A1
:1011B0009F83A887B98711E06E817F818885998593
:1011C00020E030E040E85FE30E943B0C88230CF015
:1011D00010E0112329F081E090E09B878A8746C0C8
:1011E00011E06E817F818885998520E03FEF4FE790
:1011F00057E40E94B80C18160CF010E0112361F1AE
:101200006A817B818C819D8120E030E040E251E465
:101210000E94BC0CDC01CB01BC01CD010E943F0C43
:10122000DC01CB019B878A8712C080E991E09D8712
:101230008C878C859D858C01C8010197F1F78C0105
:101240001D870C878A859B8501979B878A878A855E
:101250009B85009751F717C06E817F81888599859E
:101260000E943F0CDC01CB019B878A878A859B8586
:101270009F878E878E859F858C01F8013197F1F7C6
:101280008F011F870E8719828EC08981882F90E079
:101290002E8D3F8D820F931FFC0180810E9457038A
:1012A00080E090E0A0EAB1E4888B998BAA8BBB8B9D
:1012B000688979898A899B8920E030E04AE755E48A
:1012C0000E94BC0CDC01CB018C8B9D8BAE8BBF8B49
:1012D00011E06C897D898E899F8920E030E040E8AB
:1012E0005FE30E943B0C88230CF010E0112329F0EF
:1012F00081E090E0998F888F46C011E06C897D89EC
:101300008E899F8920E03FEF4FE757E40E94B80C99
:1013100018160CF010E0112361F1688979898A8927
:101320009B8920E030E040E251E40E94BC0CDC01EB
:10133000CB01BC01CD010E943F0CDC01CB01998F98
:10134000888F12C080E991E09B8F8A8F8A8D9B8D58
:101350008C01C8010197F1F78C011B8F0A8F888DD2
:10136000998D0197998F888F888D998D009751F766
:1013700017C06C897D898E899F890E943F0CDC0192
:10138000CB01998F888F888D998D9D8F8C8F8C8DB7
:101390009D8D8C01F8013197F1F78F011D8F0C8F16
:1013A00089818F5F89838981803108F46ECF6F9640
:1013B0000FB6F894DEBF0FBECDBFDF91CF911F9166
:1013C0000F9108950F931F93CF93DF93CDB7DEB79F
:1013D000E9970FB6F894DEBF0FBECDBF8AE390E069
:1013E0002FEFFC0120838BE390E02FEFFC012083A3
:1013F00081E390E02FEFFC01208382E390E02FEF68
:10140000FC0120830E94650680E090E0A0EAB0E441
:101410008A839B83AC83BD836A817B818C819D8120
:1014200020E030E04AE755E40E94BC0CDC01CB012F
:101430008E839F83A887B98711E06E817F8188851D
:10144000998520E030E040E85FE30E943B0C882370
:101450000CF010E0112329F081E090E09B878A874F
:1014600046C011E06E817F818885998520E03FEF3D
:101470004FE757E40E94B80C18160CF010E0112347
:1014800061F16A817B818C819D8120E030E040E2C6
:1014900051E40E94BC0CDC01CB01BC01CD010E94D7
:1014A0003F0CDC01CB019B878A8712C080E991E069
:1014B0009D878C878C859D858C01C8010197F1F7EC
:1014C0008C011D870C878A859B8501979B878A875E
:1014D0008A859B85009751F717C06E817F8188852B
:1014E00099850E943F0CDC01CB019B878A878A8506
:1014F0009B859F878E878E859F858C01F80131970C
:10150000F1F78F011F870E8780E80E94490080E075
:1015100090E0A0EAB0E4888B998BAA8BBB8B68899A
:1015200079898A899B8920E030E04AE755E40E9466
:10153000BC0CDC01CB018C8B9D8BAE8BBF8B11E087
:101540006C897D898E899F8920E030E040E85FE3E7
:101550000E943B0C88230CF010E0112329F081E05D
:1015600090E0998F888F46C011E06C897D898E89C3
:101570009F8920E03FEF4FE757E40E94B80C181610
:101580000CF010E0112361F1688979898A899B89BF
:1015900020E030E040E251E40E94BC0CDC01CB01D1
:1015A000BC01CD010E943F0CDC01CB01998F888FDB
:1015B00012C080E991E09B8F8A8F8A8D9B8D8C0170
:1015C000C8010197F1F78C011B8F0A8F888D998DC7
:1015D0000197998F888F888D998D009751F717C043
:1015E0006C897D898E899F890E943F0CDC01CB012B
:1015F000998F888F888D998D9D8F8C8F8C8D9D8DE7
:101600008C01F8013197F1F78F011D8F0C8F198232
:101610008CC08981882F90E0805A9F4FFC01808187
:101620000E94570380E090E0A0E4B0E48E8F9F8F8B
:10163000A8A3B9A36E8D7F8D88A199A120E030E089
:101640004AE755E40E94BC0CDC01CB018AA39BA3B2
:10165000ACA3BDA311E06AA17BA18CA19DA120E058
:1016600030E040E85FE30E943B0C88230CF010E080
:10167000112329F081E090E09FA38EA346C011E0E2
:101680006AA17BA18CA19DA120E03FEF4FE757E429
:101690000E94B80C18160CF010E0112361F16E8D49
:1016A0007F8D88A199A120E030E040E251E40E94C2
:1016B000BC0CDC01CB01BC01CD010E943F0CDC0164
:1016C000CB019FA38EA312C080E991E099A788A7C0
:1016D00088A599A58C01C8010197F1F78C0119A77C
:1016E00008A78EA19FA101979FA38EA38EA19FA162
:1016F000009751F717C06AA17BA18CA19DA10E9400
:101700003F0CDC01CB019FA38EA38EA19FA19BA7C1
:101710008AA78AA59BA58C01F8013197F1F78F0163
:101720001BA70AA789818F5F898389818C3008F480
:1017300070CF80EC0E94490019828CC08981882F6B
:1017400090E083599F4FFC0180810E94570380E005
:1017500090E0A0E4B0E48CA79DA7AEA7BFA76CA5BE
:101760007DA58EA59FA520E030E04AE755E40E94C4
:10177000BC0CDC01CB0188AB99ABAAABBBAB11E0D5
:1017800068A979A98AA99BA920E030E040E85FE335
:101790000E943B0C88230CF010E0112329F081E01B
:1017A00090E09DAB8CAB46C011E068A979A98AA9ED
:1017B0009BA920E03FEF4FE757E40E94B80C1816B2
:1017C0000CF010E0112361F16CA57DA58EA59FA5FD
:1017D00020E030E040E251E40E94BC0CDC01CB018F
:1017E000BC01CD010E943F0CDC01CB019DAB8CAB59
:1017F00012C080E991E09FAB8EAB8EA99FA98C01AE
:10180000C8010197F1F78C011FAB0EAB8CA99DA904
:1018100001979DAB8CAB8CA99DA9009751F717C080
:1018200068A979A98AA99BA90E943F0CDC01CB0178
:101830009DAB8CAB8CA99DA999AF88AF88AD99ADB4
:101840008C01F8013197F1F78F0119AF08AF898149
:101850008F5F898389818E3008F470CF80E090E0BB
:10186000E9960FB6F894DEBF0FBECDBFDF91CF91E2
:101870001F910F9108952FD008F481E0089557D05B
:1018800088F09F5790F0B92F9927B751A0F0D1F069
:10189000660F771F881F991F1AF0BA95C9F712C0F3
:1018A000B13081F05ED0B1E008955BC0672F782F32
:1018B0008827B85F39F0B93FCCF38695779567955F
:1018C000B395D9F73EF490958095709561957F4FCB
:1018D0008F4F9F4F0895990F0008550FAA0BE0E80E
:1018E000FEEF16161706E807F907C0F012161306E2
:1018F000E407F50798F0621B730B840B950B39F422
:101900000A2661F0232B242B252B21F408950A2687
:1019100009F4A140A6958FEF811D811D089557FD03
:101920009058440F551F59F05F3F71F04795880F4D
:1019300097FB991F61F09F3F79F0879508951216E4
:1019400013061406551FF2CF4695F1DF08C0161690
:1019500017061806991FF1CF869571056105089441
:101960000895E894BB2766277727CB0197F9089558
:10197000B2DF08F48FEF08950BD078C069D028F05B
:101980006ED018F0952309F05AC05FC01124EACF39
:10199000C6DFA0F3959FD1F3950F50E0551F629FCE
:1019A000F001729FBB27F00DB11D639FAA27F00DB8
:1019B000B11DAA1F649F6627B00DA11D661F829FDF
:1019C0002227B00DA11D621F739FB00DA11D621FC4
:1019D000839FA00D611D221F749F3327A00D611DE1
:1019E000231F849F600D211D822F762F6A2F1124C3
:1019F0009F5750408AF0E1F088234AF0EE0FFF1F16
:101A0000BB1F661F771F881F91505040A9F79E3F4C
:101A1000510570F014C0A6CF5F3FECF3983EDCF3A5
:101A2000869577956795B795F795E7959F5FC1F789
:101A3000FE2B880F911D9695879597F9089597F934
:101A40009F6780E870E060E008959FEF80EC089564
:101A500000240A941616170618060906089500248D
:101A60000A9412161306140605060895092E039407
:101A7000000C11F4882352F0BB0F40F4BF2B11F47B
:101A800060FF04C06F5F7F4F8F4F9F4F0895F894A2
:021A9000FFCF86
:101A920051513A3236323334323530360054453AC7
:0C1AA20031333532333333323639330000
:00000001FF
